{
    "contractName": "Identity",
    "abi": [
        {
            "inputs": [
                {
                    "internalType": "string",
                    "name": "_first_name",
                    "type": "string"
                },
                {
                    "internalType": "string",
                    "name": "_last_name",
                    "type": "string"
                },
                {
                    "internalType": "string",
                    "name": "_country",
                    "type": "string"
                },
                {
                    "internalType": "string",
                    "name": "_city",
                    "type": "string"
                },
                {
                    "internalType": "uint8",
                    "name": "_dni",
                    "type": "uint8"
                }
            ],
            "stateMutability": "nonpayable",
            "type": "constructor"
        },
        {
            "inputs": [],
            "name": "get_identity",
            "outputs": [
                {
                    "components": [
                        {
                            "internalType": "string",
                            "name": "first_name",
                            "type": "string"
                        },
                        {
                            "internalType": "string",
                            "name": "last_name",
                            "type": "string"
                        },
                        {
                            "internalType": "string",
                            "name": "country",
                            "type": "string"
                        },
                        {
                            "internalType": "string",
                            "name": "city",
                            "type": "string"
                        },
                        {
                            "internalType": "uint8",
                            "name": "dni",
                            "type": "uint8"
                        }
                    ],
                    "internalType": "struct Identity.identity",
                    "name": "",
                    "type": "tuple"
                }
            ],
            "stateMutability": "view",
            "type": "function"
        },
        {
            "inputs": [],
            "name": "iden",
            "outputs": [
                {
                    "internalType": "string",
                    "name": "first_name",
                    "type": "string"
                },
                {
                    "internalType": "string",
                    "name": "last_name",
                    "type": "string"
                },
                {
                    "internalType": "string",
                    "name": "country",
                    "type": "string"
                },
                {
                    "internalType": "string",
                    "name": "city",
                    "type": "string"
                },
                {
                    "internalType": "uint8",
                    "name": "dni",
                    "type": "uint8"
                }
            ],
            "stateMutability": "view",
            "type": "function"
        }
    ],
    "bytecode": "60806040523480156200001157600080fd5b5060405162000a4338038062000a4383398101604081905262000034916200021e565b845162000049906000906020880190620000ab565b5083516200005f906001906020870190620000ab565b50825162000075906002906020860190620000ab565b5081516200008b906003906020850190620000ab565b506004805460ff191660ff92909216919091179055506200032f92505050565b828054620000b990620002f3565b90600052602060002090601f016020900481019282620000dd576000855562000128565b82601f10620000f857805160ff191683800117855562000128565b8280016001018555821562000128579182015b82811115620001285782518255916020019190600101906200010b565b50620001369291506200013a565b5090565b5b808211156200013657600081556001016200013b565b634e487b7160e01b600052604160045260246000fd5b600082601f8301126200017957600080fd5b81516001600160401b038082111562000196576200019662000151565b604051601f8301601f19908116603f01168101908282118183101715620001c157620001c162000151565b81604052838152602092508683858801011115620001de57600080fd5b600091505b83821015620002025785820183015181830184015290820190620001e3565b83821115620002145760008385830101525b9695505050505050565b600080600080600060a086880312156200023757600080fd5b85516001600160401b03808211156200024f57600080fd5b6200025d89838a0162000167565b965060208801519150808211156200027457600080fd5b6200028289838a0162000167565b955060408801519150808211156200029957600080fd5b620002a789838a0162000167565b94506060880151915080821115620002be57600080fd5b50620002cd8882890162000167565b925050608086015160ff81168114620002e557600080fd5b809150509295509295909350565b600181811c908216806200030857607f821691505b6020821081036200032957634e487b7160e01b600052602260045260246000fd5b50919050565b610704806200033f6000396000f3fe608060405234801561001057600080fd5b50600436106100365760003560e01c806353d4a1bb1461003b578063dab339851461005d575b600080fd5b610043610072565b6040516100549594939291906105a2565b60405180910390f35b6100656102b7565b6040516100549190610605565b60008054819061008190610694565b80601f01602080910402602001604051908101604052809291908181526020018280546100ad90610694565b80156100fa5780601f106100cf576101008083540402835291602001916100fa565b820191906000526020600020905b8154815290600101906020018083116100dd57829003601f168201915b50505050509080600101805461010f90610694565b80601f016020809104026020016040519081016040528092919081815260200182805461013b90610694565b80156101885780601f1061015d57610100808354040283529160200191610188565b820191906000526020600020905b81548152906001019060200180831161016b57829003601f168201915b50505050509080600201805461019d90610694565b80601f01602080910402602001604051908101604052809291908181526020018280546101c990610694565b80156102165780601f106101eb57610100808354040283529160200191610216565b820191906000526020600020905b8154815290600101906020018083116101f957829003601f168201915b50505050509080600301805461022b90610694565b80601f016020809104026020016040519081016040528092919081815260200182805461025790610694565b80156102a45780601f10610279576101008083540402835291602001916102a4565b820191906000526020600020905b81548152906001019060200180831161028757829003601f168201915b5050506004909301549192505060ff1685565b6102ec6040518060a0016040528060608152602001606081526020016060815260200160608152602001600060ff1681525090565b60006040518060a001604052908160008201805461030990610694565b80601f016020809104026020016040519081016040528092919081815260200182805461033590610694565b80156103825780601f1061035757610100808354040283529160200191610382565b820191906000526020600020905b81548152906001019060200180831161036557829003601f168201915b5050505050815260200160018201805461039b90610694565b80601f01602080910402602001604051908101604052809291908181526020018280546103c790610694565b80156104145780601f106103e957610100808354040283529160200191610414565b820191906000526020600020905b8154815290600101906020018083116103f757829003601f168201915b5050505050815260200160028201805461042d90610694565b80601f016020809104026020016040519081016040528092919081815260200182805461045990610694565b80156104a65780601f1061047b576101008083540402835291602001916104a6565b820191906000526020600020905b81548152906001019060200180831161048957829003601f168201915b505050505081526020016003820180546104bf90610694565b80601f01602080910402602001604051908101604052809291908181526020018280546104eb90610694565b80156105385780601f1061050d57610100808354040283529160200191610538565b820191906000526020600020905b81548152906001019060200180831161051b57829003601f168201915b50505091835250506004919091015460ff16602090910152919050565b6000815180845260005b8181101561057b5760208185018101518683018201520161055f565b8181111561058d576000602083870101525b50601f01601f19169290920160200192915050565b60a0815260006105b560a0830188610555565b82810360208401526105c78188610555565b905082810360408401526105db8187610555565b905082810360608401526105ef8186610555565b91505060ff831660808301529695505050505050565b602081526000825160a0602084015261062160c0840182610555565b90506020840151601f198085840301604086015261063f8383610555565b9250604086015191508085840301606086015261065c8383610555565b925060608601519150808584030160808601525061067a8282610555565b91505060ff60808501511660a08401528091505092915050565b600181811c908216806106a857607f821691505b6020821081036106c857634e487b7160e01b600052602260045260246000fd5b5091905056fea264697066735822122058eec859d7ab1df24357f2797d9b5ea9a301100518b5ce5bd9e7f6674f23cff964736f6c634300080d0033",
    "sourcePath": "/home/kirov/Desktop/digital-identity/identity.sol",
    "compiler": {
        "name": "solc",
        "version": "0.8.13+commit.abaa5c0e"
    },
    "functionHashes": {
        "get_identity()": "dab33985",
        "iden()": "53d4a1bb"
    },
    "gasEstimates": {
        "creation": {
            "codeDepositCost": "359200",
            "executionCost": "infinite",
            "totalCost": "infinite"
        },
        "external": {
            "get_identity()": "infinite",
            "iden()": "infinite"
        }
    }
}