{
    "contractName": "Identity",
    "abi": [
        {
            "inputs": [],
            "name": "city",
            "outputs": [
                {
                    "internalType": "string",
                    "name": "",
                    "type": "string"
                }
            ],
            "stateMutability": "view",
            "type": "function"
        },
        {
            "inputs": [],
            "name": "county",
            "outputs": [
                {
                    "internalType": "string",
                    "name": "",
                    "type": "string"
                }
            ],
            "stateMutability": "view",
            "type": "function"
        },
        {
            "inputs": [],
            "name": "dni",
            "outputs": [
                {
                    "internalType": "uint8",
                    "name": "",
                    "type": "uint8"
                }
            ],
            "stateMutability": "view",
            "type": "function"
        },
        {
            "inputs": [],
            "name": "fist_name",
            "outputs": [
                {
                    "internalType": "string",
                    "name": "",
                    "type": "string"
                }
            ],
            "stateMutability": "view",
            "type": "function"
        },
        {
            "inputs": [],
            "name": "last_name",
            "outputs": [
                {
                    "internalType": "string",
                    "name": "",
                    "type": "string"
                }
            ],
            "stateMutability": "view",
            "type": "function"
        }
    ],
    "bytecode": "608060405234801561001057600080fd5b5061022b806100206000396000f3fe608060405234801561001057600080fd5b50600436106100575760003560e01c80635cd7bbd01461005c578063c339dc9c1461007a578063e3c5fe0914610099578063eecc285a146100a1578063fd0160fe146100a9575b600080fd5b6100646100b1565b6040516100719190610166565b60405180910390f35b6004546100879060ff1681565b60405160ff9091168152602001610071565b61006461013f565b61006461014c565b610064610159565b600280546100be906101bb565b80601f01602080910402602001604051908101604052809291908181526020018280546100ea906101bb565b80156101375780601f1061010c57610100808354040283529160200191610137565b820191906000526020600020905b81548152906001019060200180831161011a57829003601f168201915b505050505081565b600080546100be906101bb565b600180546100be906101bb565b600380546100be906101bb565b600060208083528351808285015260005b8181101561019357858101830151858201604001528201610177565b818111156101a5576000604083870101525b50601f01601f1916929092016040019392505050565b600181811c908216806101cf57607f821691505b6020821081036101ef57634e487b7160e01b600052602260045260246000fd5b5091905056fea2646970667358221220290507151aa277cf3148b64a336c666b9012f296957a277db29b8457a1bc4ada64736f6c634300080d0033",
    "sourcePath": "/home/kirov/Desktop/digital-identity/identity.sol",
    "compiler": {
        "name": "solc",
        "version": "0.8.13+commit.abaa5c0e"
    },
    "functionHashes": {
        "city()": "fd0160fe",
        "county()": "5cd7bbd0",
        "dni()": "c339dc9c",
        "fist_name()": "e3c5fe09",
        "last_name()": "eecc285a"
    },
    "gasEstimates": {
        "creation": {
            "codeDepositCost": "111000",
            "executionCost": "159",
            "totalCost": "111159"
        },
        "external": {
            "city()": "infinite",
            "county()": "infinite",
            "dni()": "2313",
            "fist_name()": "infinite",
            "last_name()": "infinite"
        }
    }
}